:020000040800F2
:100000000000022079120008890D00088F0D0008F9
:10001000950D00089B0D0008A10D000800000000D0
:10002000000000000000000000000000A70D000814
:10003000B50D000800000000C30D0008D10D000838
:10004000C9120008C9120008C9120008C912000824
:10005000C9120008C9120008C9120008C912000814
:10006000C9120008C9120008C9120008C912000804
:10007000C9120008C9120008C9120008C9120008F4
:10008000C9120008C9120008C912000800000000C7
:10009000000000000000000000000000C91200087D
:1000A000C9120008C9120008C9120008C9120008C4
:1000B000C9120008C9120008C9120008C9120008B4
:1000C000C9120008C9120008C9120008C9120008A4
:1000D000C9120008C9120008C91200080000000077
:1000E000C9120008C9120008C91200080000000067
:1000F000000000000000000000000000C91200081D
:1001000000000000C9120008C9120008C912000846
:1001100000000000000000000000000000000000DF
:10012000C9120008C9120008C9120008C912000843
:10013000C9120008000000000000000000000000DC
:10014000000000000000000000000000DD0D0008BD
:10015000C9120008C9120008C9120008C912000813
:10016000C9120008C91200080000000000000000C9
:10017000000000000000000000000000000000007F
:1001800000000000C912000800000000000000008C
:08019000C9120008C9120008A1
:1001A00010B5054C237833B9044B13B10448AFF3B1
:1001B00000800123237010BD90000020000000008B
:1001C000C0DD000808B5034B1BB103490348AFF37A
:1001D000008008BD0000000094000020C0DD000881
:1001E00001F0FF01102A2BDB10F0070F08D010F8E8
:1001F000013B013A8B422DD010F0070F42B3F6D1EC
:10020000F0B441EA012141EA014122F007047FF004
:1002100000070023F0E80256083C85EA010586EA5B
:10022000010685FA47F5A3FA87F586FA47F6A5FA97
:1002300087F68EB9EED1F0BC01F0FF0102F00702A3
:1002400032B110F8013B013A83EA010313B1F8D14E
:100250000020704701387047002D06BF354603382F
:10026000073815F0010F07D1013015F4807F02BF68
:10027000013015F4C03F0130F0BC0138704700BFB9
:1002800053B94AB9002908BF00281CBF4FF0FF31FD
:100290004FF0FF3000F074B9ADF1080C6DE904CEF9
:1002A00000F006F8DDF804E0DDE9022304B0704751
:1002B0002DE9F047089D04468E46002B4DD18A4219
:1002C000944669D9B2FA82F252B101FA02F3C2F14C
:1002D000200120FA01F10CFA02FC41EA030E9440DD
:1002E0004FEA1C48210CBEFBF8F61FFA8CF708FBFE
:1002F00016E341EA034306FB07F199420AD91CEBD6
:10030000030306F1FF3080F01F81994240F21C8107
:10031000023E63445B1AA4B2B3FBF8F008FB10334F
:1003200044EA034400FB07F7A7420AD91CEB040484
:1003300000F1FF3380F00A81A74240F20781644454
:10034000023840EA0640E41B00261DB1D4400023D9
:10035000C5E900433146BDE8F0878B4209D9002D3D
:1003600000F0EF800026C5E9000130463146BDE8C7
:10037000F087B3FA83F6002E4AD18B4202D3824231
:1003800000F2F980841A61EB030301209E46002DE0
:10039000E0D0C5E9004EDDE702B9FFDEB2FA82F235
:1003A000002A40F09280A1EB0C014FEA1C471FFA93
:1003B0008CFE0126200CB1FBF7F307FB131140EA7A
:1003C00001410EFB03F0884208D91CEB010103F147
:1003D000FF3802D2884200F2CB804346091AA4B209
:1003E000B1FBF7F007FB101144EA01440EFB00FEDD
:1003F000A64508D91CEB040400F1FF3102D2A64542
:1004000000F2BB800846A4EB0E0440EA03409CE7E0
:10041000C6F12007B34022FA07FC4CEA030C20FA8D
:1004200007F401FA06F31C43F9404FEA1C4900FAAD
:1004300006F3B1FBF9F8200C1FFA8CFE09FB18112A
:1004400040EA014108FB0EF0884202FA06F20BD99D
:100450001CEB010108F1FF3A80F08880884240F2ED
:100460008580A8F102086144091AA4B2B1FBF9F031
:1004700009FB101144EA014100FB0EFE8E4508D92C
:100480001CEB010100F1FF346CD28E456AD90238B1
:10049000614440EA0840A0FB0294A1EB0E01A14296
:1004A000C846A64656D353D05DB1B3EB080261EB04
:1004B0000E0101FA07F722FA06F3F1401F43C5E9DE
:1004C000007100263146BDE8F087C2F12003D84014
:1004D0000CFA02FC21FA03F3914001434FEA1C4756
:1004E0001FFA8CFEB3FBF7F007FB10360B0C43EA48
:1004F000064300FB0EF69E4204FA02F408D91CEBF8
:10050000030300F1FF382FD29E422DD902386344F5
:100510009B1B89B2B3FBF7F607FB163341EA034195
:1005200006FB0EF38B4208D91CEB010106F1FF38E4
:1005300016D28B4214D9023E6144C91A46EA0046DB
:1005400038E72E46284605E70646E3E61846F8E66D
:100550004B45A9D2B9EB020864EB0C0E0138A3E7B6
:100560004646EAE7204694E74046D1E7D0467BE797
:10057000023B614432E7304609E76444023842E70F
:10058000704700BF80B500AF00F0AAF8042000F06B
:1005900059F8052000F056F8062000F053F807201F
:1005A00000F050F800BF80BD80B500AF00F082F8C9
:1005B00000BF80BD80B586B000AFF860B96013465B
:1005C000FB7172B600BF00237B610DE07B69BA68E6
:1005D00013441B781946F86800F010F8FB680133E3
:1005E000FB607B6901337B61FB797A699A42EDDBC1
:1005F00062B600BF00BF1837BD4680BD80B582B06F
:1006000000AF78600B46FB7000F088F80C4B1B695C
:100610000B4A23F440731361094B094A1B691361A8
:10062000074B1B69064A43F0010313617B68FA78A4
:100630001A70BFF34F8F00BF00BF0837BD4680BDA3
:10064000003C024080B582B000AF786000F066F8F0
:1006500000F046F8164B1B69154A23F440731361EA
:10066000134B1B69124A43F400731361104B1B694F
:100670000F4A23F0010313610D4B1B690C4A23F051
:10068000F80313610A4B1A697B68DB001343084ABD
:1006900043F002031361064B1B69054A43F48033A0
:1006A0001361BFF34F8F00BF00BF0837BD4680BD49
:1006B000003C024080B400AF084B1B6903F00043CC
:1006C000012B05D0054B1B69044A43F0004313611D
:1006D00000BFBD465DF8047B704700BF003C024090
:1006E00080B400AF0A4B1B69002B0BDA084B5A6829
:1006F0000749084B13434B60054B5A680449064BA6
:1007000013434B6000BFBD465DF8047B704700BFDC
:10071000003C024023016745AB89EFCD80B400AFB8
:1007200000BF064BDB6803F48033002BF9D100BF18
:1007300000BFBD465DF8047B704700BF003C02402F
:1007400080B58AB000AF07F1140300221A605A6026
:100750009A60DA601A6100233B61314B1B6B304AAF
:1007600043F0800313632E4B1B6B03F080033B614C
:100770003B690023FB602A4B1B6B294A43F00403AF
:100780001363274B1B6B03F00403FB60FB68002320
:10079000BB60234B1B6B224A43F001031363204BC6
:1007A0001B6B03F00103BB60BB6800237B601C4B29
:1007B0001B6B1B4A43F008031363194B1B6B03F0BD
:1007C00008037B607B6800220121164801F0AAF82B
:1007D00000224FF47041144801F0A4F801237B611A
:1007E0000123BB610023FB6100233B6207F114037B
:1007F00019460C4800F012FF4FF470437B6101234F
:10080000BB610023FB6100233B6207F1140319461F
:10081000054800F003FF00BF2837BD4680BD00BF7C
:100820000038024000080240000C024090B589B038
:1008300000AFF860B9601346FB710023FB61BB6831
:100840001B783A2B01D00323FB61F86800F0B3F862
:10085000BB6801331A78BB6802331B78194610460F
:1008600000F0D2F803461A46FB681A70BB680333DF
:100870001A78BB6804331B781946104600F0C4F898
:1008800003461B021CB2BB6805331A78BB680633EB
:100890001B781946104600F0B7F803461BB22343F5
:1008A0001BB29AB2FB685A80BB6807331A78BB68E0
:1008B00008331B781946104600F0A6F803461A467E
:1008C000FB681A71FB681B79052B01D90223FB61B8
:1008D0000923FB7600237B6119E0FB7EBA68134491
:1008E0001878FB7E0133BA6813441B78194600F070
:1008F0008BF803461946FA687B69134405330A46A8
:100900001A70FB7E0233FB767B6901337B61FB68E7
:100910001B781A467B699342DFDBFB7EBA6813447F
:100920001878FB7E0133BA6813441B78194600F02F
:100930006BF803461A46FB685A75FB681A78FB6821
:100940005B88DBB21344DAB2FB685B881B0A9BB29C
:10095000DBB21344DAB2FB681B791344DAB2FB68EA
:100960009A7500233B610DE0FB689A7DF9683B694D
:100970000B4405331B781344DAB2FB689A753B6964
:1009800001333B61FB681B781A463B699342EBDB02
:10099000FB689B7D5B42DAB2FB689A75FB689A7DC7
:1009A000FB685B7D9A4201D00123FB61FB6918461D
:1009B0002437BD4690BD80B485B000AF78607B68B9
:1009C00000221A707B6800225A807B6800221A710C
:1009D0007B6800225A757B6800229A750023FB60B1
:1009E00008E07A68FB681344053300221A70FB683C
:1009F0000133FB60FB680F2BF3DD00BF00BF143732
:100A0000BD465DF8047B704780B582B000AF0346F9
:100A10000A46FB711346BB71FB79184600F012F8C9
:100A200003461B01FB71BB79184600F00BF8034627
:100A3000BB71FA79BB791343DBB218460837BD4660
:100A400080BD000080B485B000AF0346FB71FB7928
:100A5000303B162B60D801A252F823F0B90A0008E7
:100A6000BF0A0008C50A0008CB0A0008D10A00081E
:100A7000D70A0008DD0A0008E30A0008E90A0008AE
:100A8000EF0A0008190B0008190B0008190B0008E1
:100A9000190B0008190B0008190B0008190B0008A6
:100AA000F50A0008FB0A0008010B0008070B000804
:100AB0000D0B0008130B00080023FB732EE001232D
:100AC000FB732BE00223FB7328E00323FB7325E079
:100AD0000423FB7322E00523FB731FE00623FB7353
:100AE0001CE00723FB7319E00823FB7316E00923BE
:100AF000FB7313E00A23FB7310E00B23FB730DE081
:100B00000C23FB730AE00D23FB7307E00E23FB733A
:100B100004E00F23FB7301E0FF23FB73FB7B18460C
:100B20001437BD465DF8047B704700BFB0B592B086
:100B300000AF00F0CBFB00F06DF8FFF701FE0CF00A
:100B40007DF900F09DF904F051FB2A4B1B687B6492
:100B50007B6C3B64284B3C1D1D460FCD0FC40FCD55
:100B60000FC40FCD0FC495E803002060043421703A
:100B7000391D64233522214802F0DDFF0CF084F991
:100B80001F4B1B78022B08D0032B30D100224FF4CF
:100B900080511C4800F0C6FE2AE0642307221A494F
:100BA000164802F0C8FF01224FF48051154800F0AA
:100BB000B9FE00F097F800224FF48051114800F080
:100BC000B1FE01224FF400410E4800F0ABFE0F4B86
:100BD0000F4A9A600E4B1B68FB63FB6B83F308881C
:100BE00000BF3B6C9847064B05221A7000E000BF1F
:100BF000C4E700BF04000108E0DD0008F010002099
:100C0000603A0020000C0240D8DD000800ED00E052
:100C10000000010880B594B000AF07F12003302236
:100C2000002118460CF064FC07F10C0300221A6046
:100C30005A609A60DA601A610023BB60274B1B6C14
:100C4000264A43F080531364244B1B6C03F08053FB
:100C5000BB60BB6800237B60214B1B68204A43F4C8
:100C6000404313601E4B1B6803F440437B607B686A
:100C700001233B624FF480337B620223BB634FF45A
:100C80008003FB6304233B64C0237B640423BB64B5
:100C90000823FB6407F12003184602F067FA0346B5
:100CA000002B01D000F042F80F23FB6002233B61D0
:100CB00000237B614FF4A053BB610023FB6107F16C
:100CC0000C030321184602F0C9FC0346002B01D097
:100CD00000F02CF800BF5037BD4680BD0038024000
:100CE0000070004080B500AF00220B490B480AF0AD
:100CF00075FF0346002B06D06423102208490948DB
:100D000002F019FF07E0642330220749054802F08A
:100D100012FF00F027F980BDE8100020AC00002091
:100D200018DE0008F01000202CDE000880B400AFB0
:100D300072B600BFFEE7000080B582B000AF0023AE
:100D40007B60104B5B6C0F4A43F4804353640D4B44
:100D50005B6C03F480437B607B6800233B60094B42
:100D60001B6C084A43F080531364064B1B6C03F062
:100D700080533B603B68072000F00EFC00BF083743
:100D8000BD4680BD0038024080B400AFFEE780B4AD
:100D900000AFFEE780B400AFFEE780B400AFFEE72F
:100DA00080B400AFFEE780B400AF00BFBD465DF881
:100DB000047B704780B400AF00BFBD465DF8047B84
:100DC000704780B400AF00BFBD465DF8047B70473C
:100DD00080B500AF00F0CCFA00BF80BD80B500AF99
:100DE000024801F023F800BF80BD00BF643A002034
:100DF00080B586B000AF7860144A154BD31A7B617A
:100E00007B693B61134B1B68002B02D1114B124ACB
:100E10001A60104B1A687B6813443A699A4207D2E9
:100E20000CF01EFB03460C221A604FF0FF3309E062
:100E3000084B1B68FB60074B1A687B681344054A24
:100E40001360FB6818461837BD4680BD00000220BD
:100E500000040000EC100020783D002080B400AFBA
:100E6000064BD3F88830054A43F47003C2F8883043
:100E700000BFBD465DF8047B704700BF00ED00E099
:100E800080B500AF114B124A1A60104B4FF4165246
:100E90005A600E4B00229A600C4B0022DA600B4B1A
:100EA00000221A61094B0C225A61084B00229A61F8
:100EB000064B0022DA61054802F0F0FD0346002BE4
:100EC00001D0FFF733FF00BF80BD00BFF01000204E
:100ED0000044004080B58AB000AF786007F1140389
:100EE00000221A605A609A60DA601A617B681B6897
:100EF000194A93422BD100233B61184B1B6C174AB4
:100F000043F400331364154B1B6C03F400333B6153
:100F10003B690023FB60114B1B6B104A43F001033C
:100F200013630E4B1B6B03F00103FB60FB680C2388
:100F30007B610223BB610023FB6103233B62072328
:100F40007B6207F114031946054800F067FB00BFF8
:100F50002837BD4680BD00BF004400400038024035
:100F600000000240F0B5F1B016AF0023A7F824311D
:100F70000023A7F826310023C7F86431012387F83E
:100F800063310A22724973480AF06EFE01227249E7
:100F900072480AF069FE0346002B06D06423122231
:100FA0006F49704802F0C7FDCDE00023A7F8243157
:100FB000FFF7E8FAB2E0D7F864310133C7F86431DB
:100FC000D7F8643142F2BE32934200F3AD8007F5A8
:100FD00094732E21184600F033F907F594735F4A95
:100FE0002E2118460BF0CAFD07F5947107F586739C
:100FF0002E221846FFF71AFCC7F85C0107F5867326
:10100000184600F0B5F8034687F86331D7F85C312D
:10101000002B00F0838007F14403C821184600F03C
:101020000FF997F80C31FB63B7F80E31BB63B7F8D3
:1010300024317B6397F810313B6397F81131FB62E1
:1010400097F81231BB6297F813317B6297F814312D
:101050003B6297F81531FB6197F81631BB6197F841
:1010600017317B6197F818313B6197F81931FB60B4
:1010700097F81A31BB6097F81B317B6097F81C31E9
:101080003B6097F81D311E4697F81E311D4697F8B4
:101090001F311C4697F82031194697F821311A461E
:1010A00097F8223107F1440015931492139112948A
:1010B000119510963A680F927A680E92BA680D925E
:1010C000FA680C923A690B927A690A92BA690992A3
:1010D000FA6908923A6A07927A6A0692BA6A05929F
:1010E000FA6A04923A6B03927A6B0292BA6B01929B
:1010F000FB6B0093D7F86431D7F85C211A490CF0E8
:10110000EFFAC823C7F85831D7F8582107F5AC7360
:1011100007F144010F480BF012FA06E097F863312B
:10112000002B7FF448AF00E000BFFFF73DFA6423D7
:1011300012220E490B4802F0FEFC06480BF0F4FCAC
:1011400006480BF0F1FC07F5B677BD46F0BD00BFD1
:1011500060DE00089021002070DE000838110020B9
:101160007CDE0008F010002090DE000844DF00085C
:1011700080B584B000AF78607B681B79052B59D8A7
:1011800001A252F823F000BFA1110008C911000804
:10119000CD11000835120008E711000803120008FD
:1011A0007B681B8B1B047A6852881A437B685B8BB5
:1011B0001B011344BB607B68591D7B681B781A4672
:1011C000B868FFF7F7F936E0002335E07B685B7914
:1011D0001B021AB27B689B791BB213431BB29AB2F3
:1011E0007B685A8327E07B685B791B021AB27B68B5
:1011F0009B791BB213431BB2FB817B68FA891A836C
:1012000019E07B685B791B021AB27B689B791BB281
:1012100013431BB29AB27B681A837B68DB791B028B
:101220001AB27B681B7A1BB213431BB29AB27B685B
:101230005A8000E000BF012318461037BD4680BD2C
:1012400080B485B000AF78600B467B800023FB60E4
:1012500007E0FB687A68134400221A70FB680133C8
:10126000FB607B88FA689A42F3DB00BF00BF14374B
:10127000BD465DF8047B7047DFF834D00D480E4959
:101280000E4A002302E0D458C4500433C4188C42E0
:10129000F9D30B4A0B4C002301E013600432A24245
:1012A000FBD3FFF7DBFD0CF0E1F8FFF73FFC7047E5
:1012B00000000220000000209000002060E40008F0
:1012C00090000020783D0020FEE7000080B500AFD0
:1012D0000E4B1B680D4A43F4007313600B4B1B68E5
:1012E0000A4A43F480631360084B1B68074A43F4BF
:1012F00080731360032000F04FF9002000F008F81D
:10130000FFF71AFD0023184680BD00BF003C0240D5
:1013100080B582B000AF7860124B1A68124B1B7810
:1013200019464FF47A73B3FBF1F3B2FBF3F31846AB
:1013300000F067F90346002B01D001230EE07B6823
:101340000F2B0AD8002279684FF0FF3000F02FF9F8
:10135000064A7B681360002300E001231846083723
:10136000BD4680BD000000200800002004000020D1
:1013700080B400AF064B1B781A46064B1B6813441B
:10138000044A136000BFBD465DF8047B704700BF90
:1013900008000020E831002080B400AF034B1B6838
:1013A0001846BD465DF8047B704700BFE831002059
:1013B00080B584B000AF7860FFF7EEFFB8607B685F
:1013C000FB60FB68B3F1FF3F05D00A4B1B781A4660
:1013D000FB681344FB6000BFFFF7DEFF0246BB68FB
:1013E000D31AFA689A42F7D800BF00BF1037BD463B
:1013F00080BD00BF0800002080B485B000AF7860D9
:101400007B6803F00703FB600C4BDB68BB60BA68CA
:101410004FF6FF031340BB60FB681A02BB6813431F
:1014200043F0BF6343F40033BB60044ABB68D3603E
:1014300000BF1437BD465DF8047B704700ED00E047
:1014400080B400AF044BDB681B0A03F007031846A7
:10145000BD465DF8047B704700ED00E080B483B0CA
:1014600000AF0346FB7197F90730002B0BDBFB79CC
:1014700003F01F02074997F907305B09012000FAC2
:1014800002F241F8232000BF0C37BD465DF8047B13
:10149000704700BF00E100E080B483B000AF0346B6
:1014A0003960FB7197F90730002B0ADB3B68DAB231
:1014B0000C4997F907301201D2B20B4483F800238C
:1014C0000AE03B68DAB20849FB7903F00F03043BFA
:1014D0001201D2B20B441A7600BF0C37BD465DF83C
:1014E000047B704700E100E000ED00E080B489B0CB
:1014F00000AFF860B9607A60FB6803F00703FB6136
:10150000FB69C3F10703042B28BF0423BB61FB69FC
:101510000433062B02D9FB69033B00E000237B6107
:101520004FF0FF32BB6902FA03F3DA43BB681A409B
:101530007B699A404FF0FF317B6901FA03F3D9438D
:101540007B680B40134318462437BD465DF8047B87
:101550007047000080B582B000AF78607B68013BC7
:10156000B3F1807F01D301230FE00A4A7B68013B7E
:1015700053600F214FF0FF30FFF78EFF054B002225
:101580009A60044B07221A60002318460837BD46AC
:1015900080BD00BF10E000E080B582B000AF786091
:1015A0007868FFF729FF00BF0837BD4680BD80B5CA
:1015B00086B000AF0346B9607A60FB7300237B619D
:1015C000FFF73EFF78617A68B9687869FFF78EFFA8
:1015D000024697F90F3011461846FFF75DFF00BF2E
:1015E0001837BD4680BD80B582B000AF0346FB71A1
:1015F00097F907301846FFF731FF00BF0837BD469F
:1016000080BD80B582B000AF78607868FFF7A2FF38
:10161000034618460837BD4680BD000080B489B037
:1016200000AF7860396000237B6100233B610023B9
:10163000BB610023FB6159E10122FB6902FA03F35C
:101640007B613B681B687A6913403B613A697B693F
:101650009A4240F048813B685B6803F00303012B2A
:1016600005D03B685B6803F00303022B30D17B6835
:101670009B68BB61FB695B00032202FA03F3DB4357
:10168000BA691340BB613B68DA68FB695B0002FA28
:1016900003F3BA691343BB617B68BA699A607B68DC
:1016A0005B68BB610122FB6902FA03F3DB43BA69A1
:1016B0001340BB613B685B681B0903F00102FB69D7
:1016C00002FA03F3BA691343BB617B68BA695A60D3
:1016D0003B685B6803F00303032B17D07B68DB6870
:1016E000BB61FB695B00032202FA03F3DB43BA69C7
:1016F0001340BB613B689A68FB695B0002FA03F325
:10170000BA691343BB617B68BA69DA603B685B689E
:1017100003F00303022B23D1FB69DA087B6808324C
:1017200053F82230BB61FB6903F007039B000F22D3
:1017300002FA03F3DB43BA691340BB613B681A69E1
:10174000FB6903F007039B0002FA03F3BA69134332
:10175000BB61FB69DA087B680832B96943F822107B
:101760007B681B68BB61FB695B00032202FA03F321
:10177000DB43BA691340BB613B685B6803F003025B
:10178000FB695B0002FA03F3BA691343BB617B6830
:10179000BA691A603B685B6803F44033002B00F0C1
:1017A000A2800023FB60574B5B6C564A43F4804396
:1017B0005364544B5B6C03F48043FB60FB68524AF8
:1017C000FB699B08023352F82330BB61FB6903F0CD
:1017D00003039B000F2202FA03F3DB43BA691340B1
:1017E000BB617B68494A934219D07B68484A93425F
:1017F00013D07B68474A93420DD07B68464A934298
:1018000007D07B68454A934201D1042308E00723AF
:1018100006E0032304E0022302E0012300E00023AA
:10182000FA6902F0030292009340BA691343BB6164
:101830003549FB699B080233BA6941F82320384BCC
:101840009B68BB613B69DB43BA691340BB613B6882
:101850005B6803F48013002B03D0BA693B69134320
:10186000BB612F4ABB6993602D4BDB68BB613B6951
:10187000DB43BA691340BB613B685B6803F4001348
:10188000002B03D0BA693B691343BB61244ABB698F
:10189000D360234B5B68BB613B69DB43BA69134090
:1018A000BB613B685B6803F40033002B03D0BA696B
:1018B0003B691343BB611A4ABB695360184B1B68F1
:1018C000BB613B69DB43BA691340BB613B685B6842
:1018D00003F48033002B03D0BA693B691343BB6127
:1018E0000F4ABB691360FB690133FB61FB690F2B76
:1018F0007FF6A2AE00BF00BF2437BD465DF8047B73
:10190000704700BF0038024000380140000002402C
:101910000004024000080240000C02400010024097
:10192000003C014080B483B000AF78600B467B8000
:1019300013467B707B78002B03D07A887B689A6192
:1019400003E07B881A047B689A6100BF0C37BD46B0
:101950005DF8047B7047F0B58FB00AAF78607B68A4
:10196000002B01D1012354E07B681B68FB607B687E
:1019700093F8F932DBB2002B06D17B68002283F8A2
:10198000F82278680BF0B8FA7B68032283F8F92212
:10199000FB68DB6B03F48073002B02D17B680022B1
:1019A0001A617B681B68184602F0ACFC7B681B68F8
:1019B0003B607E686D4606F110040FCC0FC50FCC5E
:1019C0000FC594E8030085E80300331D0ECB38688B
:1019D00002F026FC7B681B680121184602F0A3FC7C
:1019E0007B681B683B607E686D4606F110040FCC77
:1019F0000FC50FCC0FC594E8030085E80300331D25
:101A00000ECB386802F02CFE7B68012283F8F922A5
:101A1000002318461437BD46F0BD90B589B004AF19
:101A20007860084611461A460346FB700B46BB70A9
:101A300013467B707B6893F8F832012B01D10223A7
:101A400076E07B68012283F8F822FB787A682C2103
:101A500001FB03F313443D3300221A70FB787A68CC
:101A60002C2101FB03F3134438337A781A70FB7886
:101A70007A682C2101FB03F3134440333A8D1A801A
:101A8000FB787A682C2101FB03F313443933FA788D
:101A90001A70FB787A682C2101FB03F313443F335F
:101AA00097F824201A70FB78BA7802F07F02D0B23F
:101AB0007A682C2101FB03F313443A3302461A706F
:101AC00097F90230002B09DAFB787A682C2101FBA8
:101AD00003F313443B3301221A7008E0FB787A6861
:101AE0002C2101FB03F313443B3300221A70FB78D3
:101AF0007A682C2101FB03F313443C3397F8202030
:101B00001A707B6818687C78BA78F9783B8D0293F4
:101B100097F82430019397F820300093234602F081
:101B200025FF0346FB737B68002283F8F822FB7BCA
:101B300018461437BD4690BD80B584B000AF7860BC
:101B40000B46FB700023FB737B6893F8F832012B84
:101B500001D102230FE07B68012283F8F8227B6821
:101B60001B68FA781146184603F075F97B68002265
:101B700083F8F822FB7B18461037BD4680BD000075
:101B800080B582B000AF7860084611461A46034619
:101B9000FB700B46BB7013467B70FB787A682C2178
:101BA00001FB03F313443B33BA781A70FB787A686D
:101BB0002C2101FB03F313443F337A781A703B7CEA
:101BC000002B12D1FB787A682C2101FB03F313441C
:101BD000423303221A70FB787A682C2101FB03F34D
:101BE00013443D333A7F1A7008E0FB787A682C2161
:101BF00001FB03F31344423302221A707B78032B58
:101C000000F2C68001A252F823F000BF1D1C00089C
:101C10007D1D0008811C0008FF1C00083B7C012B77
:101C200040F0B880BB78002B40F0B4803B8B002B99
:101C300008D1FB787A682C2101FB03F31344553358
:101C400001221A70FB787A682C2101FB03F31344FC
:101C500055331B78002B09D1FB787A682C2101FBC6
:101C600003F31344423300221A7093E0FB787A683E
:101C70002C2101FB03F31344423302221A7089E042
:101C8000BB78002B1DD1FB787A682C2101FB03F374
:101C9000134455331B78002B09D1FB787A682C212B
:101CA00001FB03F31344423300221A7073E0FB7804
:101CB0007A682C2101FB03F31344423302221A7089
:101CC00069E0FB787A682C2101FB03F31344543359
:101CD0001B78002B09D1FB787A682C2101FB03F3D8
:101CE0001344423300221A7055E0FB787A682C21A5
:101CF00001FB03F31344423302221A704BE0BB781A
:101D0000002B1DD1FB787A682C2101FB03F31344CF
:101D100055331B78002B09D1FB787A682C2101FB05
:101D200003F31344423300221A7034E0FB787A68DC
:101D30002C2101FB03F31344423302221A702AE0E0
:101D4000FB787A682C2101FB03F3134454331B788E
:101D5000002B09D1FB787A682C2101FB03F3134493
:101D6000423300221A7016E0FB787A682C2101FBBE
:101D700003F31344423302221A700CE0FB787A68B2
:101D80002C2101FB03F31344423300221A7002E0BA
:101D900000BF00E000BFFB787A682C2101FB03F351
:101DA000134444337A691A60FB783A8B79682C20A3
:101DB00000FB03F30B444C331A60FB787A682C2148
:101DC00001FB03F31344603300221A70FB787A6836
:101DD0002C2101FB03F31344503300221A60FB78DB
:101DE0007A682C2101FB03F313443933FA781A7013
:101DF000FB787A682C2101FB03F313446133002242
:101E00001A707B681868FB782C2202FB03F33833C6
:101E10007A68D1187B681B69DBB21A4602F0C8FEEB
:101E2000034618460837BD4680BD00BF80B586B062
:101E300000AF78607B681B683B613B69FB607B6837
:101E40001B68184602F0C9FB0346012B40F0F680E0
:101E50007B681B68184602F0ADFB0346002B00F0C0
:101E6000EC807B681B68184602F0A4FB034603F471
:101E70000013B3F5001F04D17B681B684FF40012F8
:101E80005A617B681B68184602F094FB034603F412
:101E90008013B3F5801F04D17B681B684FF4801258
:101EA0005A617B681B68184602F084FB034603F006
:101EB0008063B3F1806F04D17B681B684FF0806250
:101EC0005A617B681B68184602F074FB034603F0F6
:101ED0000203022B03D17B681B6802225A617B68D4
:101EE0001B68184602F066FB034603F00053B3F18B
:101EF000005F1CD17B681B684FF000525A61FB6881
:101F000003F588631B6803F00103002B0FD1102138
:101F1000386902F055FA386902F086FA7B681B6866
:101F20000121184602F05CFC78680BF063F87B68CE
:101F30001B68184602F03EFB034603F08073B3F1C2
:101F4000807F02D1786801F09EF87B681B68184694
:101F500002F030FB034603F00803082B06D1786833
:101F60000BF02CF87B681B6808225A617B681B68A1
:101F7000184602F01FFB034603F01003102B01D19B
:101F8000012300E00023002B12D07B681B689A69B4
:101F90007B681B6822F010029A61786800F0A1FF4C
:101FA0007B681B689A697B681B6842F010029A6123
:101FB0007B681B68184602F0FDFA034603F00073C5
:101FC000B3F1007F3AD17B681B68184602F032FFFC
:101FD000B86000237B6125E07B6903F00F03BA68DA
:101FE00022FA03F303F00103002B18D07B695A0196
:101FF000FB68134403F5A0631B6803F40043B3F5C7
:10200000004F06D17B69DBB21946786800F0ABF867
:1020100005E07B69DBB21946786800F0F9FB7B6963
:1020200001337B617B689B687A699A42D4D37B6871
:102030001B684FF000725A6100E000BF1837BD46C0
:1020400080BD80B582B000AF78607B6893F8F832CD
:10205000012B01D1022313E07B68012283F8F822CF
:102060007B681B680121184602F01EFC7B681B6818
:10207000184602F036F97B68002283F8F822002324
:1020800018460837BD4680BD80B582B000AF786085
:102090007B6893F8F832012B01D102230DE07B68B5
:1020A000012283F8F8227B681B68184603F00CF8BD
:1020B0007B68002283F8F822002318460837BD46C3
:1020C00080BD80B582B000AF78607B681B68184621
:1020D00002F0C0FB034618460837BD4680BD80B4F9
:1020E00083B000AF78600B46FB70FB787A682C21D8
:1020F00001FB03F3134460331B7818460C37BD46CD
:102100005DF8047B704780B483B000AF78600B4605
:10211000FB70FB787A682C2101FB03F313445033E6
:102120001B6818460C37BD465DF8047B704780B5C8
:1021300082B000AF78607B681B68184602F004FC30
:10214000034618460837BD4680BD80B582B000AF53
:1021500078607B681B68184602F0DFFB0346184670
:102160000837BD4680BD80B586B000AF78600B46AD
:10217000FB707B681B687B617B693B61FB78FB6064
:10218000FB685A013B69134403F5A0639B6803F0A5
:102190000403042B1AD1FB685A013B69134403F56D
:1021A000A0631A46042393607A68FB682C2101FB24
:1021B00003F31344613306221A707B681B68FA68C4
:1021C000D2B21146184602F046FEAFE0FB685A0153
:1021D0003B69134403F5A0639B6803F48073B3F574
:1021E000807F1BD1FB685A013B69134403F5A06350
:1021F0001A464FF4807393607A68FB682C2101FBC8
:1022000003F31344613307221A707B681B68FA6872
:10221000D2B21146184602F01EFE87E0FB685A0152
:102220003B69134403F5A0639B6803F02003202B54
:1022300009D1FB685A013B69134403F5A0631A46B0
:102240002023936072E0FB685A013B69134403F555
:10225000A0639B6803F00803082B1AD1FB685A019E
:102260003B69134403F5A0631A46082393607A6818
:10227000FB682C2101FB03F31344613305221A7020
:102280007B681B68FA68D2B21146184602F0E3FD7B
:102290004CE0FB685A013B69134403F5A0639B685B
:1022A00003F48063B3F5806F1BD1FB685A013B696F
:1022B000134403F5A0631A464FF4806393607A6871
:1022C000FB682C2101FB03F31344613308221A70CD
:1022D0007B681B68FA68D2B21146184602F0BBFD53
:1022E00024E0FB685A013B69134403F5A0639B6833
:1022F00003F08003802B19D1FB685A013B6913441A
:1023000003F5A0631A46802393607A68FB682C214A
:1023100001FB03F31344613306221A707B681B68C8
:10232000FA68D2B21146184602F095FDFB685A01D0
:102330003B69134403F5A0639B6803F40073B3F592
:10234000007F12D17B681B68FA68D2B2114618462A
:1023500002F081FDFB685A013B69134403F5A06359
:102360001A464FF4007393604EE2FB685A013B69D2
:10237000134403F5A0639B6803F00103012B40F0B5
:10238000DF807B681B69002B19D07A68FB682C21E1
:1023900001FB03F3134448331A68FB6859013B6996
:1023A0000B4403F5A0631B69C3F31203D21A7968C7
:1023B000FB682C2000FB03F30B4450331A607A684F
:1023C000FB682C2101FB03F31344613301221A70D3
:1023D0007A68FB682C2101FB03F313445C33002271
:1023E0001A60FB685A013B69134403F5A0631A465F
:1023F000012393607A68FB682C2101FB03F31344EB
:102400003F331B78002B09D07A68FB682C2101FB35
:1024100003F313443F331B78022B11D17B681B68F5
:10242000FA68D2B21146184602F015FDFB685A014F
:102430003B69134403F5A0631A46102393603AE006
:102440007A68FB682C2101FB03F313443F331B78AC
:10245000032B09D07A68FB682C2101FB03F313449A
:102460003F331B78012B26D1FB685A013B6913448B
:1024700003F5A0631B68FA6851013A690A4402F542
:10248000A06243F0005313607A68FB682C2101FBC3
:1024900003F31344603301221A70FB68D9B27A68DF
:1024A000FB682C2000FB03F3134460331B781A46AF
:1024B00078680AF0ADFD7B681B69012B2BD17A6827
:1024C000FB682C2101FB03F3134448331B68796834
:1024D000FA682C2000FB02F20A4440321288B3FB57
:1024E000F2F303F00103002B00F08E817A68FB68A1
:1024F0002C2101FB03F3134454331B7883F00103B5
:10250000D8B27A68FB682C2101FB03F313445433DF
:1025100002461A7078E17A68FB682C2101FB03F30C
:10252000134454331B7883F00103D8B27A68FB68F4
:102530002C2101FB03F31344543302461A7063E168
:10254000FB685A013B69134403F5A0639B6803F0E1
:102550000203022B40F0F6807A68FB682C2101FB15
:1025600003F3134461331B78012B09D17A68FB68AC
:102570002C2101FB03F31344603301221A70C9E0DC
:102580007A68FB682C2101FB03F3134461331B7849
:10259000052B09D17A68FB682C2101FB03F3134456
:1025A000603305221A70B5E07A68FB682C2101FBC4
:1025B00003F3134461331B78062B09D07A68FB6858
:1025C0002C2101FB03F3134461331B78082B50D1FA
:1025D0007A68FB682C2101FB03F313445C331B680E
:1025E0005A1C7968FB682C2000FB03F30B445C3316
:1025F0001A607A68FB682C2101FB03F313445C33F7
:102600001B68022B12D97A68FB682C2101FB03F3AB
:1026100013445C3300221A607A68FB682C2101FBAA
:1026200003F31344603304221A7073E07A68FB6882
:102630002C2101FB03F31344603302221A70FB6860
:102640005A013B69134403F5A0631B68BB60BB6878
:1026500023F08043BB60BB6843F00043BB60FB6872
:102660005A013B69134403F5A0631A46BB68136023
:1026700050E07A68FB682C2101FB03F313446133BB
:102680001B78032B22D17A68FB682C2101FB03F312
:102690001344603302221A70FB685A013B691344E9
:1026A00003F5A0631B68BB60BB6823F08043BB607D
:1026B000BB6843F00043BB60FB685A013B691344AD
:1026C00003F5A0631A46BB68136023E07A68FB68D1
:1026D0002C2101FB03F3134461331B78072B19D121
:1026E0007A68FB682C2101FB03F313445C331B68FD
:1026F0005A1C7968FB682C2000FB03F30B445C3305
:102700001A607A68FB682C2101FB03F313446033E1
:1027100004221A70FB685A013B69134403F5A06355
:102720001A4602239360FB68D9B27A68FB682C20B2
:1027300000FB03F3134460331B781A4678680AF0F1
:1027400067FC61E0FB685A013B69134403F5A06331
:102750009B6803F01003102B56D17A68FB682C217C
:1027600001FB03F313443F331B78032B11D17A6829
:10277000FB682C2101FB03F313445C3300221A6035
:102780007B681B68FA68D2B21146184602F063FBF8
:1027900031E07A68FB682C2101FB03F313443F33DB
:1027A0001B78002B09D07A68FB682C2101FB03F30E
:1027B00013443F331B78022B1DD17A68FB682C2110
:1027C00001FB03F313445C3300221A607B681B692E
:1027D000002B10D17A68FB682C2101FB03F3134412
:1027E000613303221A707B681B68FA68D2B2114603
:1027F000184602F030FBFB685A013B69134403F5AD
:10280000A0631A461023936000BF1837BD4680BDF1
:1028100080B588B000AF78600B46FB707B681B68A2
:10282000FB61FB69BB61FB787B617B695A01BB691A
:10283000134403F5A0639B6803F00403042B1AD12F
:102840007B695A01BB69134403F5A0631A4604234C
:1028500093607A687B692C2101FB03F31344613395
:1028600006221A707B681B687A69D2B21146184634
:1028700002F0F1FA31E37B695A01BB69134403F5B5
:10288000A0639B6803F02003202B2ED17B695A01A3
:10289000BB69134403F5A0631A46202393607A684A
:1028A0007B692C2101FB03F313443D331B78012B7F
:1028B00040F013837A687B692C2101FB03F31344F6
:1028C0003D3300221A707A687B692C2101FB03F3E7
:1028D0001344603302221A707B681B687A69D2B293
:1028E0001146184602F0B7FAF7E27B695A01BB6954
:1028F000134403F5A0639B6803F40073B3F5007FF2
:1029000012D17B695A01BB69134403F5A0631A46CF
:102910004FF4007393607B681B687A69D2B21146EA
:10292000184602F098FAD8E27B695A01BB69134451
:1029300003F5A0639B6803F00103012B40D17A6883
:102940007B692C2101FB03F313445C3300221A60E2
:102950007B695A01BB69134403F5A0639B6803F0CC
:102960004003402B11D17A687B692C2101FB03F3D2
:1029700013443D3301221A707B695A01BB69134429
:1029800003F5A0631A46402393607B695A01BB6933
:10299000134403F5A0631A46012393607A687B69A8
:1029A0002C2101FB03F31344613301221A707B686D
:1029B0001B687A69D2B21146184602F04CFA8CE2D2
:1029C0007B695A01BB69134403F5A0639B6803F05C
:1029D0004003402B2CD17A687B692C2101FB03F347
:1029E0001344613304221A707A687B692C2101FB3D
:1029F00003F313443D3301221A707A687B692C215A
:102A000001FB03F313445C3300221A607B681B68EC
:102A10007A69D2B21146184602F01DFA7B695A0152
:102A2000BB69134403F5A0631A464023936054E244
:102A30007B695A01BB69134403F5A0639B6803F0EB
:102A40000803082B1AD17B695A01BB69134403F5AB
:102A5000A0631A46082393607A687B692C2101FBE6
:102A600003F31344613305221A707B681B687A698B
:102A7000D2B21146184602F0EEF92EE27B695A01F5
:102A8000BB69134403F5A0639B6803F01003102B8C
:102A900040D17A687B692C2101FB03F313445C333A
:102AA00000221A607A687B692C2101FB03F313442E
:102AB000613303221A707A687B692C2101FB03F3CE
:102AC00013443D331B78002B12D17A687B692C218B
:102AD00001FB03F313443C331B78002B08D17A68C5
:102AE0007B692C2101FB03F313443D3301221A704F
:102AF0007B681B687A69D2B21146184602F0ABF9BE
:102B00007B695A01BB69134403F5A0631A4610237D
:102B10009360E2E17B695A01BB69134403F5A0634A
:102B20009B6803F08003802B64D17B681B69002BBA
:102B300011D17A687B692C2101FB03F313446133C3
:102B400006221A707B681B687A69D2B21146184651
:102B500002F081F944E07A687B692C2101FB03F3E0
:102B600013445C331B685A1C79687B692C2000FB7A
:102B700003F30B445C331A607A687B692C2101FBF8
:102B800003F313445C331B68022B20D97A687B69FA
:102B90002C2101FB03F313445C3300221A607A6892
:102BA0007B692C2101FB03F31344603304221A7068
:102BB0007B69D9B27A687B692C2000FB03F313444C
:102BC00060331B781A4678680AF022FA08E07A68BF
:102BD0007B692C2101FB03F31344603302221A703A
:102BE0007B695A01BB69134403F5A0631A4680232D
:102BF000936072E17B695A01BB69134403F5A063DA
:102C00009B6803F48063B3F5806F1BD17A687B699E
:102C10002C2101FB03F31344613308221A707B68F3
:102C20001B687A69D2B21146184602F014F97B6922
:102C30005A01BB69134403F5A0631A464FF480633D
:102C400093604AE17B695A01BB69134403F5A063B1
:102C50009B6803F00203022B40F03F817A687B6996
:102C60002C2101FB03F3134461331B78012B7DD12D
:102C70007A687B692C2101FB03F313446033012242
:102C80001A707A687B692C2101FB03F313443F33EC
:102C90001B78022B0AD07A687B692C2101FB03F395
:102CA00013443F331B78032B40F000817B681B6982
:102CB000002B13D17A687B692C2101FB03F31344A9
:102CC00055331B7883F00103D8B27A687B692C21D5
:102CD00001FB03F31344553302461A707B681B69EA
:102CE000012B40F0E3807A687B692C2101FB03F320
:102CF00013444C331B68002B00F0D8807A687B6942
:102D00002C2101FB03F313444C331B6879687A6967
:102D10002C2000FB02F20A44403212881344013B8B
:102D200079687A692C2000FB02F20A44403212884A
:102D3000B3FBF2F3FB60FB6803F00103002B00F030
:102D4000B5807A687B692C2101FB03F3134455336A
:102D50001B7883F00103D8B27A687B692C2101FBD0
:102D600003F31344553302461A709FE07A687B6977
:102D70002C2101FB03F3134461331B78032B09D18E
:102D80007A687B692C2101FB03F313446033022230
:102D90001A708BE07A687B692C2101FB03F31344E2
:102DA00061331B78042B09D17A687B692C2101FBE4
:102DB00003F31344603302221A7077E07A687B6968
:102DC0002C2101FB03F3134461331B78052B09D13C
:102DD0007A687B692C2101FB03F3134460330522DD
:102DE0001A7063E07A687B692C2101FB03F31344BA
:102DF00061331B78062B09D07A687B692C2101FB93
:102E000003F3134461331B78082B4FD17A687B6935
:102E10002C2101FB03F313445C331B685A1C7968B3
:102E20007B692C2000FB03F30B445C331A607A6847
:102E30007B692C2101FB03F313445C331B68022BD9
:102E400012D97A687B692C2101FB03F313445C33AC
:102E500000221A607A687B692C2101FB03F313447A
:102E6000603304221A7021E07A687B692C2101FB0F
:102E700003F31344603302221A707B695A01BB6961
:102E8000134403F5A0631B683B613B6923F0804357
:102E90003B613B6943F000433B617B695A01BB697D
:102EA000134403F5A0631A463B6913607B695A011A
:102EB000BB69134403F5A0631A46022393607B6940
:102EC000D9B27A687B692C2000FB03F3134460338A
:102ED0001B781A4678680AF09BF800BF2037BD4679
:102EE00080BD80B58AB000AF78607B681B687B626C
:102EF0007B6A3B627B681B681B6AFB61FB6903F0B2
:102F00000F03BB61FB695B0C03F00F037B61FB6983
:102F10001B09C3F30A033B617B69022B04D07B6965
:102F2000052B00F0A980AAE03B69002B00F0A680E9
:102F30007A68BB692C2101FB03F3134444331B68FB
:102F4000002B00F09B807A68BB692C2101FB03F306
:102F5000134450331A683B691A447968BB692C20C2
:102F600000FB03F30B444C331B689A427AD87B680E
:102F700018687A68BB692C2101FB03F313444433BE
:102F80001B683A6992B2194601F0BCFA7A68BB69CB
:102F90002C2101FB03F3134444331A683B691A44A0
:102FA0007968BB692C2000FB03F30B4444331A609F
:102FB0007A68BB692C2101FB03F3134450331A6870
:102FC0003B691A447968BB692C2000FB03F30B446E
:102FD00050331A60BB695A013B6A134403F5A0637E
:102FE0001B69DB0CC3F30903FB607A68BB692C2106
:102FF00001FB03F3134440331B881A463B69934299
:103000003CD1FB68002B39D0BB695A013B6A1344A1
:1030100003F5A0631B68BB60BB6823F08043BB6003
:10302000BB6843F00043BB60BB695A013B6A134471
:1030300003F5A0631A46BB6813607A68BB692C214C
:1030400001FB03F3134454331B7883F00103D8B21C
:103050007A68BB692C2101FB03F313445433024605
:103060001A700BE07A68BB692C2101FB03F313444F
:10307000603304221A7001E000BF00E000BF00BF0F
:103080002837BD4680BD80B586B000AF78607B68CC
:103090001B687B617B693B613B6903F588631B6847
:1030A000FB603B6903F588631B68BB60BB6823F06A
:1030B0002E03BB60FB6803F00203022B0BD1FB68FD
:1030C00003F00103012B02D1786809F085FFBB688A
:1030D00043F00203BB60FB6803F00803082B32D106
:1030E000BB6843F00803BB60FB6803F00403042BD8
:1030F00026D17B689B69022B13D1FB6803F4C023A4
:10310000B3F5802F06D17B681B680221184601F0B9
:1031100067FB11E07B681B680121184601F060FB2A
:103120000AE07B68DB68012B06D13B6903F580630D
:103130001A464EF660235360786809F077FF02E084
:10314000786809F081FFFB6803F02003202B03D18E
:10315000BB6843F02003BB603B6903F588631A46F4
:10316000BB68136000BF1837BD4680BD80B586B010
:1031700000AF78607B68002B01D1012367E27B6898
:103180001B6803F00103002B75D0884B9B6803F08C
:103190000C03042B0CD0854B9B6803F00C03082B0D
:1031A00012D1824B5B6803F48003B3F5800F0BD11F
:1031B0007E4B1B6803F40033002B5BD07B685B689D
:1031C000002B57D1012342E27B685B68B3F5803F57
:1031D00006D1764B1B68754A43F4803313601DE0BB
:1031E0007B685B68B3F5A02F0CD1704B1B686F4AEE
:1031F00043F4802313606D4B1B686C4A43F48033A7
:1032000013600BE0694B1B68684A23F4803313603A
:10321000664B1B68654A23F4802313607B685B68F8
:10322000002B13D0FEF7B8F8386108E0FEF7B4F8C9
:1032300002463B69D31A642B01D9032307E25B4B97
:103240001B6803F40033002BF0D014E0FEF7A4F861
:10325000386108E0FEF7A0F802463B69D31A642BF8
:1032600001D90323F3E1514B1B6803F40033002B16
:10327000F0D100E000BF7B681B6803F00203002B65
:1032800063D04A4B9B6803F00C03002B0BD0474BD9
:103290009B6803F00C03082B1CD1444B5B6803F4C0
:1032A0008003002B16D1414B1B6803F00203002B57
:1032B00005D07B68DB68012B01D00123C7E13B4BC4
:1032C0001B6823F0F8027B681B69DB003749134356
:1032D0000B603AE07B68DB68002B20D0344B012286
:1032E0001A60FEF759F8386108E0FEF755F8024613
:1032F0003B69D31A022B01D90323A8E12B4B1B688E
:1033000003F00203002BF0D0284B1B6823F0F802D7
:103310007B681B69DB00254913430B6015E0244BD8
:1033200000221A60FEF738F8386108E0FEF734F83A
:1033300002463B69D31A022B01D9032387E11B4BB9
:103340001B6803F00203002BF0D17B681B6803F0BD
:103350000803002B36D07B685B69002B16D0154B19
:1033600001221A60FEF718F8386108E0FEF714F839
:1033700002463B69D31A022B01D9032367E10B4BA9
:103380005B6F03F00203002BF0D01BE0094B00221F
:103390001A60FEF701F838610EE0FDF7FDFF024606
:1033A0003B69D31A022B07D9032350E100380240AE
:1033B00000004742800E4742884B5B6F03F00203D8
:1033C000002BEAD17B681B6803F00403002B00F09C
:1033D00097800023FB75814B1B6C03F08053002BFF
:1033E0000FD10023BB607D4B1B6C7C4A43F08053A4
:1033F00013647A4B1B6C03F08053BB60BB680123E2
:10340000FB75774B1B6803F48073002B18D1744B4A
:103410001B68734A43F480731360FDF7BDFF386186
:1034200008E0FDF7B9FF02463B69D31A022B01D928
:1034300003230CE16A4B1B6803F48073002BF0D06C
:103440007B689B68012B06D1644B1B6F634A43F07A
:10345000010313671CE07B689B68052B0CD15F4B55
:103460001B6F5E4A43F0040313675C4B1B6F5B4AA0
:1034700043F0010313670BE0584B1B6F574A23F0CF
:1034800001031367554B1B6F544A23F00403136762
:103490007B689B68002B15D0FDF77EFF38610AE042
:1034A000FDF77AFF02463B69D31A41F28832934214
:1034B00001D90323CBE0494B1B6F03F00203002B20
:1034C000EED014E0FDF768FF38610AE0FDF764FF15
:1034D00002463B69D31A41F28832934201D9032351
:1034E000B5E03E4B1B6F03F00203002BEED1FB7DDA
:1034F000012B05D1394B1B6C384A23F080531364E0
:103500007B689B69002B00F0A180344B9B6803F023
:103510000C03082B5CD07B689B69022B41D1314B9B
:1035200000221A60FDF738FF386108E0FDF734FF2C
:1035300002463B69D31A022B01D9032387E0274BAC
:103540001B6803F00073002BF0D17B68DA697B689D
:103550001B6A1A437B685B6A9B011A437B689B6A00
:103560005B08013B1B041A437B68DB6A1B061B4993
:1035700013434B601B4B01221A60FDF70DFF3861AE
:1035800008E0FDF709FF02463B69D31A022B01D977
:1035900003235CE0114B1B6803F00073002BF0D099
:1035A00054E0104B00221A60FDF7F6FE386108E087
:1035B000FDF7F2FE02463B69D31A022B01D9032321
:1035C00045E0064B1B6803F00073002BF0D13DE093
:1035D0007B689B69012B07D1012338E0003802404A
:1035E00000700040600047421B4B5B68FB607B68DB
:1035F0009B69012B28D0FB6803F480027B68DB69A0
:103600009A4221D1FB6803F03F027B681B6A9A4211
:103610001AD1FA6847F6C07313407A68526A920169
:10362000934211D1FB6803F440327B689B6A5B08CC
:10363000013B1B049A4207D1FB6803F070627B6870
:10364000DB6A1B069A4201D0012300E000231846E2
:103650001837BD4680BD00BF0038024080B584B039
:1036600000AF786039607B68002B01D10123CCE08A
:10367000684B1B6803F007033A689A420CD9654B04
:103680003A68D2B21A70634B1B6803F007033A68BA
:103690009A4201D00123B8E07B681B6803F0020363
:1036A000002B20D07B681B6803F00403002B05D09F
:1036B000594B9B68584A43F4E05393607B681B68FE
:1036C00003F00803002B05D0534B9B68524A43F488
:1036D00060439360504B9B6823F0F0027B689B68CB
:1036E0004D4913438B607B681B6803F00103002B7B
:1036F00044D07B685B68012B07D1474B1B6803F400
:103700000033002B19D101237FE07B685B68022B1B
:1037100003D07B685B68032B07D13F4B1B6803F02A
:103720000073002B09D101236FE03B4B1B6803F0B2
:103730000203002B01D1012367E0374B9B6823F084
:1037400003027B685B68344913438B60FDF724FEFA
:10375000F8600AE0FDF720FE0246FB68D31A41F24A
:103760008832934201D903234FE02B4B9B6803F02F
:103770000C027B685B689B009A42EBD1254B1B686F
:1037800003F007033A689A420CD2224B3A68D2B24D
:103790001A70204B1B6803F007033A689A4201D065
:1037A000012332E07B681B6803F00403002B08D080
:1037B000194B9B6823F4E0527B68DB68164913437E
:1037C0008B607B681B6803F00803002B09D0124B49
:1037D0009B6823F460427B681B69DB000E4913433E
:1037E0008B6000F021F802460B4B9B681B0903F02D
:1037F0000F030A49CB5C22FA03F3094A1360094B11
:103800001B681846FDF784FD002318461037BD4697
:1038100080BD00BF003C024000380240B0DF00081D
:1038200000000020040000202DE9B04F94B000AF4C
:1038300000237B640023FB6400233B640023BB6400
:10384000794B9B6803F00C03082B0DD0082B00F27A
:10385000E180002B02D0042B03D0DBE0734BBB6470
:10386000DBE0734BBB64D8E06F4B5B6803F03F0356
:103870007B646D4B5B6803F48003002B63D06A4B61
:103880005B689B090022BB63FA63BB6BC3F308034D
:103890003B6300237B63D7E90C4522462B464FF060
:1038A00000004FF00001590141EAD2615001024687
:1038B0000B462146511A3961294663EB01037B61AE
:1038C0004FF000024FF00003D7E904AB59468B01DB
:1038D000514643EA916351468A015146B2EB0108D1
:1038E000594663EB01094FF000024FF000034FEA25
:1038F000C90343EA58734FEAC802904699462346E3
:1039000018EB0303BB602B4649EB0303FB604FF04E
:1039100000024FF00003D7E9024529464B02214639
:1039200043EAD15321464A02104619467B6C0022D5
:10393000BB62FA62D7E90A23FCF7A2FC02460B46F7
:103940001346FB6458E0384B5B689B09002218461D
:103950001146C0F308033B6200237B62D7E9088964
:1039600042464B464FF000004FF00001590141EA3A
:10397000D261500102460B464146B2EB010A49466C
:1039800063EB010B4FF000024FF000034FEA8B1383
:1039900043EA9A634FEA8A12B2EB0A0463EB0B051F
:1039A0004FF000024FF00003EB0043EA5473E200D3
:1039B00014461D464346E3183B604B4645EB030364
:1039C0007B604FF000024FF00003D7E90045294625
:1039D0008B02214643EA915321468A02104619463A
:1039E0007B6C0022BB61FA61D7E90623FCF748FC37
:1039F00002460B461346FB640B4B5B681B0C03F043
:103A0000030301335B003B64FA6C3B6CB2FBF3F3E2
:103A1000BB6402E0054BBB6400BFBB6C184650376B
:103A2000BD46BDE8B08F00BF003802400024F4005E
:103A300000127A0080B400AF034B1B681846BD46E5
:103A40005DF8047B704700BF0000002080B500AF28
:103A5000FFF7F0FF0246054B9B689B0A03F0070344
:103A60000349CB5C22FA03F3184680BD00380240BC
:103A7000C0DF000880B500AFFFF7DCFF0246054B52
:103A80009B685B0B03F007030349CB5C22FA03F34B
:103A9000184680BD00380240C0DF000880B582B003
:103AA00000AF78607B68002B01D101233FE07B6889
:103AB00093F83D30DBB2002B06D17B68002283F8FF
:103AC0003C207868FDF706FA7B68242283F83D20C5
:103AD0007B681B68DA687B681B6822F40052DA6036
:103AE000786800F029F97B681B681A697B681B6895
:103AF00022F490421A617B681B685A697B681B68D4
:103B000022F02A025A617B681B68DA687B681B68AE
:103B100042F40052DA607B6800221A647B6820223B
:103B200083F83D207B68202283F83E20002318463E
:103B30000837BD4680BD80B58AB002AFF860B96075
:103B40003B601346FB8000237B61FB6893F83D30AC
:103B5000DBB2202B7CD1BB68002B02D0FB88002B72
:103B600001D1012375E0FB6893F83C30012B01D1B2
:103B700002236EE0FB68012283F83C20FB680022F0
:103B80001A64FB68212283F83D20FDF705FC78616B
:103B9000FB68FA889A84FB68FA88DA84FB689B6879
:103BA000B3F5805F08D1FB681B69002B04D10023AB
:103BB000FB61BB68BB6103E0BB68FB610023BB61C9
:103BC000FB68002283F83C202AE03B6800937B6975
:103BD00000228021F86800F040F80346002B01D055
:103BE000032336E0FB69002B0BD1BB691B881A4607
:103BF000FB681B68C2F308025A60BB690233BB61F1
:103C000007E0FB691A78FB681B685A60FB6901339F
:103C1000FB61FB68DB8C9BB2013B9AB2FB68DA84E8
:103C2000FB68DB8C9BB2002BCFD13B6800937B6998
:103C300000224021F86800F010F80346002B01D064
:103C4000032306E0FB68202283F83D20002300E0E8
:103C5000022318462037BD4680BD80B590B000AF26
:103C6000F860B9603B601346FB7150E0BB6CB3F188
:103C7000FF3F4CD0BB6C002B07D0FDF78DFB0246FD
:103C80003B68D31ABA6C9A4241D2FB681B680C336A
:103C9000BB62BB6A53E8003F7B627B6A23F4D0734C
:103CA000FB63FB681B680C33FA6B7A633B63396B0D
:103CB0007A6B41E80023FB62FB6A002BE5D1FB68CD
:103CC0001B6814337B617B6953E8003F3B613B69B0
:103CD00023F00103BB63FB681B681433BA6B3A62C1
:103CE000FB61F9693A6A41E80023BB61BB69002BBB
:103CF000E5D1FB68202283F83D20FB68202283F871
:103D00003E20FB68002283F83C2003230FE0FB6881
:103D10001B681A68BB681340BA689A420CBF01233B
:103D20000023DBB21A46FB799A429FD00023184643
:103D30004037BD4680BD00002DE9B04FC0B000AF98
:103D4000C7F8F400D7F8F4301B681B6923F440501F
:103D5000D7F8F430D968D7F8F4301A6840EA01038C
:103D60001361D7F8F4309A68D7F8F4301B691A4316
:103D7000D7F8F4305B691A43D7F8F430DB691343A2
:103D8000C7F8F830D7F8F4301B68DB6823F4164125
:103D900021F00C01D7F8F4301A68D7F8F8300B434B
:103DA000D360D7F8F4301B685B6923F44070D7F810
:103DB000F4309969D7F8F4301A6840EA0103536186
:103DC000D7F8F4301A688F4B9A4205D0D7F8F43000
:103DD0001A688D4B9A4204D1FFF74CFEC7F8FC00DD
:103DE00003E0FFF733FEC7F8FC00D7F8F430DB69D7
:103DF000B3F5004F40F00C81D7F8FC300022C7F833
:103E0000E830C7F8EC20D7E93A4522462B4691180E
:103E1000B9655B41FB65D7E91623214612EB010822
:103E2000294643EB01094FF000024FF000034FEA2F
:103E3000C90343EA58734FEAC8029046994623469D
:103E400018EB0303C7F8E0302B4649EB0303C7F830
:103E5000E430D7F8F4305B680022C7F8D830C7F8F0
:103E6000DC20D7E936120B46DB183B65134642EBE4
:103E700003037B65D7E91423D7E93801FCF700FA7F
:103E800002460B46614BA3FB02235B091C01D7F8DA
:103E9000FC300022C7F8D030C7F8D420D7E93489E5
:103EA00042464B469118B9645B41FB64D7E9122343
:103EB000414612EB010A494643EB010B4FF0000269
:103EC0004FF000034FEACB0343EA5A734FEACA02AA
:103ED00092469B4643461AEB0303C7F8C8304B464D
:103EE0004BEB0303C7F8CC30D7F8F4305B68002203
:103EF000C7F8C030C7F8C420D7E930120B46DB182A
:103F00003B64134642EB03037B64D7E91023D7E9F4
:103F10003201FCF7B5F902460B4611463B4BA3FBB9
:103F200001235B09642202FB03F3CB1ADB0003F1DC
:103F30003202364BA3FB02235B095B0003F4F873E8
:103F40001C44D7F8FC300022C7F8B830C7F8BC20B2
:103F5000D7E92E8942464B469118B9635B41FB6312
:103F6000D7E90E2341465118396349464B417B63DB
:103F70004FF000024FF00003D7E90CAB5946CB00DD
:103F8000514643EA51735146CA001046194603464A
:103F900042469B18C7F8B0304B460A4642EB030333
:103FA000C7F8B430D7F8F4305B680022C7F8A830FF
:103FB000C7F8AC20D7E92A120B46DB18BB621346C0
:103FC00042EB0303FB62D7E90A23D7E92C01FCF794
:103FD00057F902460B460D4BA3FB02135B09642104
:103FE00001FB03F3D31ADB003233084AA2FB03239D
:103FF0005B0903F00702D7F8F4301B6822449A608B
:1040000005E100BF00100140001401401F85EB5185
:10401000D7F8FC300022C7F8A030C7F8A420D7E9B1
:10402000288942464B46911839625B417B62D7E949
:10403000082341465418494643EB01054FF000025E
:104040004FF00003EB0043EA5473E20014461D46B0
:104050004346E318C7F898304B4645EB0303C7F8CF
:104060009C30D7F8F4305B680022C7F89030C7F86E
:1040700094204FF000024FF00003D7E92445294671
:104080008B00214643EA917321468A00D7E9260135
:10409000FCF7F6F802460B46604BA3FB02235B09D4
:1040A0001C01D7F8FC300022C7F88830C7F88C20F4
:1040B000D7E9228942464B469118B9615B41FB61C1
:1040C000D7E9062341465118396149464B417B6186
:1040D0004FF000024FF00003D7E904AB5946CB0084
:1040E000514643EA51735146CA00104619460346E9
:1040F00042469B18C7F880304B460A4642EB030302
:10410000C7F88430D7F8F4305B680022BB67FA67E1
:104110004FF000024FF00003D7E91E8949468B009B
:10412000414643EA917341468A00D7E92001FCF7F2
:10413000A7F802460B46394BA3FB02135B09642127
:1041400001FB03F3D31A1B013233344AA2FB0323CE
:104150005B0903F0F0031C44D7F8FC3000223B67F6
:104160007A67D7E91C8942464B469118B9605B4192
:10417000FB60D7E9022341465118396049464B415B
:104180007B604FF000024FF00003D7E900AB5946C7
:10419000CB00514643EA51735146CA0010461946B6
:1041A000034642469B18BB664B460A4642EB030356
:1041B000FB66D7F8F4305B6800223B667A664FF006
:1041C00000024FF00003D7E9188949468B004146A9
:1041D00043EA917341468A00D7E91A01FCF750F887
:1041E00002460B460D4BA3FB02135B09642101FB46
:1041F00003F3D31A1B013233084AA2FB03235B09E2
:1042000003F00F02D7F8F4301B6822449A6000BF15
:1042100007F58077BD46BDE8B08F00BF1F85EB5125
:1042200084B080B584B000AF786007F11C0080E8EE
:104230000E003B6B012B22D17B689B6B23F48032F9
:104240007B689A637B68DB6823F4840323F0400374
:104250007A68D3607B68DB6823F440127B68DA609D
:10426000FB6C012B05D17B68DB6843F480127B6813
:10427000DA60786800F0C0F90346FB731AE07B68E7
:10428000DB6843F040027B68DA60786800F0B4F9DC
:104290000346FB733B6C002B06D17B689B6B43F49E
:1042A00080327B689A6305E07B689B6B23F48032E5
:1042B0007B689A63BB6A012B0BD17B689B6843F0D8
:1042C00006027B689A607B689B6843F020027B68EB
:1042D0009A60FB7B18461037BD46BDE8804004B0AD
:1042E000704780B483B000AF78607B689B6843F010
:1042F00001027B689A60002318460C37BD465DF8C2
:10430000047B704780B483B000AF78607B689B68A3
:1043100023F001027B689A60002318460C37BD46E3
:104320005DF8047B704780B584B000AF78600B46C1
:10433000FB700023FB607B68DB6823F0C0427B6876
:10434000DA60FB78012B15D17B68DB6843F0005203
:104350007B68DA600120FDF72BF8FB680133FB6016
:10436000786800F03AF90346012B1ED0FB68312B28
:10437000F0D91AE0FB78002B15D17B68DB6843F09D
:1043800080427B68DA600120FDF712F8FB68013398
:10439000FB60786800F021F90346002B05D0FB682C
:1043A000312BF0D901E0012305E0FB68322B01D16C
:1043B000012300E0002318461037BD4680BD0000F1
:1043C00080B485B000AF786039600023FB60FB6883
:1043D0000133FB60FB68134A934201D903231BE0BE
:1043E0007B681B69002BF2DA0023FB603B689B01B2
:1043F00043F020027B681A61FB680133FB60FB68B5
:10440000084A934201D9032306E07B681B6903F045
:104410002003202BF0D0002318461437BD465DF84A
:10442000047B7047400D030080B485B000AF786016
:104430000023FB60FB680133FB60FB68114A934279
:1044400001D9032318E07B681B69002BF2DA0023F3
:10445000FB607B6810221A61FB680133FB60FB681C
:10446000084A934201D9032306E07B681B6903F0E5
:104470001003102BF0D0002318461437BD465DF80A
:10448000047B7047400D030080B489B000AFF86032
:10449000B96011461A460B46FB711346BB80FB6898
:1044A0007B61BB68FB6197F82830002B23D1BB8868
:1044B00003339B083B610023BB6118E0FB791A03BF
:1044C0007B69134403F580531A46FB691B6813602C
:1044D000FB690133FB61FB690133FB61FB6901335C
:1044E000FB61FB690133FB61BB690133BB61BA69E5
:1044F0003B699A42E2D3002318462437BD465DF853
:10450000047B704780B48BB000AFF860B96013468D
:10451000FB80FB68BB61BB687B62FB889B089BB22E
:104520007B61FB8803F00303FB8300233B6214E001
:10453000BB6903F580531A687B6A1A607B6A013392
:104540007B627B6A01337B627B6A01337B627B6ABD
:1045500001337B623B6A01333B623A6A7B699A4270
:10456000E6D3FB8B002B1ED000233B62BB6903F517
:1045700080531A4607F1100312681A603A693B6AC1
:10458000DBB2DB0022FA03F3DAB27B6A1A703B6A11
:1045900001333B627B6A01337B62FB8B013BFB8314
:1045A000FB8B002BEAD17B6A18462C37BD465DF8A1
:1045B000047B704780B485B000AF78607B685B692E
:1045C000FB607B689B69FA681340FB60FB681846D8
:1045D0001437BD465DF8047B704780B483B000AFEC
:1045E00078607B685B6903F0010318460C37BD46B1
:1045F0005DF8047B7047000080B485B000AF786040
:104600000023FB60FB680133FB60FB68134A9342A5
:1046100001D903231BE07B681B69002BF2DA00231E
:10462000FB607B681B6943F001027B681A61FB68D1
:104630000133FB60FB68094A934201D9032306E07A
:104640007B681B6903F00103012BF0D0002318469F
:104650001437BD465DF8047B704700BF400D030072
:1046600084B080B586B000AF786007F1240080E8A0
:104670000E000023FB757B68FB60FB6803F560633D
:104680001A46002313607B689B6B43F400127B681F
:104690009A637B689B6B23F400227B689A637B6838
:1046A0009B6B23F480227B689A637B68DB6B03F44B
:1046B0008073002B18D0FB6A012B0AD1FB6803F52D
:1046C00080631B68FA6802F5806243F0040313609C
:1046D00014E0FB6803F580631B68FA6802F58062EA
:1046E00023F00403136009E0FB6803F580631B6893
:1046F000FA6802F5806223F00403136010217868E1
:10470000FFF75EFE0346002B01D00123FB7578689E
:10471000FFF78AFE0346002B01D00123FB7500231F
:104720003B6115E03B695A01FB68134403F5A06344
:104730001A464FF0FF3393603B695A01FB681344FC
:1047400003F5A0631A460023D3603B6901333B6144
:10475000BB6A3A699A42E5D37B6800229A617B681A
:104760004FF0FF325A617B68DB6B03F48073002BE0
:104770000BD07B684FF400725A627B68134A9A62CE
:104780007B68134AC3F8002109E07B6880225A62E3
:104790007B68104A9A627B680F4AC3F800213B6B22
:1047A000002B05D17B689B6943F010027B689A61FE
:1047B0007B689A69094B13437A689361FB7D1846BD
:1047C0001837BD46BDE8804004B0704700020001C4
:1047D0000003E00080006000E0004000080020A32B
:1047E00080B485B000AF78600B46FB707B68FB60DF
:1047F000FB6803F580631B68FA6802F5806223F0AA
:1048000003031360FB6803F580631A68FB7803F009
:104810000303F96801F5806113430B60FB78012BFA
:1048200007D1FB6803F580631A464BF6803353606B
:1048300009E0FB78022B06D1FB6803F580631A467A
:1048400041F270735360002318461437BD465DF87B
:10485000047B704780B584B000AF78607B68FB60F4
:104860000023BB60FB6803F588631B68BB60BB6803
:1048700023F02E03BB60BB68FA6802F5886243F43C
:10488000807313606420FCF793FDBB68FA6802F53F
:10489000886223F4807313600A20FCF789FD0023EB
:1048A00018461037BD4680BD80B485B000AF786033
:1048B0000B46FB707B68FB600023BB60FB6803F565
:1048C00088631B68BB60BB6823F02E03BB60BB68BA
:1048D00003F48053002B09D1FB78012B06D1BB6870
:1048E000FA6802F5886243F480531360BB6803F4EE
:1048F0008053B3F5805F09D1FB78002B06D1BB68EC
:10490000FA6802F5886223F4805313600023184686
:104910001437BD465DF8047B704780B485B000AFA6
:1049200078607B68FB600023BB60FB6803F58863ED
:104930001B68BB60BB685B0C03F0030318461437AD
:10494000BD465DF8047B704780B485B000AF7860E9
:104950007B68FB60FB6803F580639B689BB218462D
:104960001437BD465DF8047B7047000080B588B001
:1049700000AF7860084611461A460346FB700B46A6
:10498000BB7013467B700023FB777B683B61FB7831
:104990005A013B69134403F5A0631A464FF0FF33F5
:1049A000936097F82C30032B7ED801A252F823F0A5
:1049B000C14900086B4A0008C14900082D4A000897
:1049C000FB785A013B69134403F5A0631A4640F291
:1049D0009D43D36097F90230002B10DAFB785A011F
:1049E0003B69134403F5A063DB68FA7851013A6927
:1049F0000A4402F5A06243F48073D36057E07B68F9
:104A0000DB6B03F48073002B51D0FB785A013B69B8
:104A1000134403F5A063DB68FA7851013A690A444C
:104A200002F5A06243F06003D36040E0FB785A01D6
:104A30003B69134403F5A0631A4640F29D63D360BB
:104A400097F90230002B34DAFB785A013B691344A2
:104A500003F5A063DB68FA7851013A690A4402F56C
:104A6000A06243F48073D36023E0FB785A013B6972
:104A7000134403F5A0631A4640F22523D36097F947
:104A80000230002B17DAFB785A013B69134403F517
:104A9000A063DB68FA7851013A690A4402F5A06222
:104AA00043F4C073D36006E00123FB7704E000BF4A
:104AB00002E000BF00E000BFFB785A013B691344ED
:104AC00003F5A063DB68FA7851013A690A4402F5FC
:104AD000A06243F00203D3603B6903F580639A69E7
:104AE000FB7803F00F03012101FA03F3396901F5A3
:104AF000806113438B617B689B6943F000727B6824
:104B00009A6197F90230002B03DA4FF40043BB613E
:104B100001E00023BB617868FFF7FFFEF86097F8BB
:104B20002830022B06D1FB68022B03D04FF4003350
:104B30007B6101E000237B617B789B0503F0FE52E3
:104B4000BB78DB0203F4F0431A4397F82C309B0444
:104B500003F440231A433B8EC3F30A031A43BB6991
:104B60001A43FB7859013B690B4403F5A0631946CE
:104B70007B6913430B6097F82C30032B03D097F815
:104B80002C30012B0FD1FB785A013B69134403F5FC
:104B9000A0631B68FA7851013A690A4402F5A062E1
:104BA00043F000531360FB7F18462037BD4680BD9D
:104BB00080B58CB002AFF860B9601346FB71FB683A
:104BC0003B62BB685B78FB614FF480737B83FB685F
:104BD000DB6B03F48073002B2DD0BB681B79002B9B
:104BE00029D1FB79012B17D1BB68DB79002B03D0CE
:104BF000BB68DB79022B0FD1FB695A013B6A134476
:104C000003F5A063DB68FA6951013A6A0A4402F5C8
:104C1000A06223F07003D360FB79002B0BD1BB683B
:104C20005B79012B07D1BB685B781946F86800F007
:104C30000FFA0023F8E0BB685B69002B18D0BB6853
:104C40005B69BA6812891344013BBA681289B3FBE5
:104C5000F2F3FB84FA8C7B8B9A420BD97B8BFB841F
:104C6000FB8CBA68128903FB02F2BB681A6101E08F
:104C70000123FB84BB68DB78002B07D0FB8CBA6870
:104C8000128903FB02F2BB681A6103E0BB685A6930
:104C9000BB681A61BB681B69C3F31202FB8CD904A1
:104CA000634B0B401A43BB689B7A5B0703F0C0431E
:104CB000F9694801396A014401F5A06113430B61A8
:104CC000FB79002B09D0BB68D968FB695A013B6AA4
:104CD000134403F5A0630A465A613B6A03F58063F7
:104CE0009B6803F00103002B0CBF01230023DBB200
:104CF0007B76FB695A013B6A134403F5A0631B688A
:104D0000FA6951013A6A0A4402F5A06223F000539D
:104D10001360FB695A013B6A134403F5A0631A68E8
:104D20007B7E5B07F9694801396A014401F5A0619E
:104D300013430B60FB695A013B6A134403F5A063FC
:104D40001B683B613B6923F080433B61BB68DB78B8
:104D5000002B04D03B6943F400433B6103E03B6913
:104D600023F400433B613B6943F000433B61FB6933
:104D70005A013B6A134403F5A0631A463B6913606A
:104D8000FB79002B01D000234EE0BB68DB78002BC1
:104D900049D1BB685B69002B45D0BB68DB79032B2D
:104DA00030D801A252F823F0B94D0008DD4D0008BB
:104DB000B94D0008DD4D0008BB685B6903339B08F3
:104DC000FB82FA8AFB68DB6A9BB29A421CD9FB68B9
:104DD0009B6943F02002FB689A6115E0BB685B6940
:104DE00003339B08FB82FA8A3B6A03F580631B69E5
:104DF0009BB29A420AD9FB689B6943F08062FB68C8
:104E00009A6103E000BF02E000BF00E000BFBB68A2
:104E1000D968BB685A78BB685B699BB20020009078
:104E2000F868FFF731FB002318462837BD4680BDE0
:104E30000000F81F80B485B000AF78607B68FB602D
:104E4000FB6803F580635B699BB218461437BD4667
:104E50005DF8047B704780B489B000AF78600B4682
:104E6000FB707B68FB61FB78BB610023FB60BB6967
:104E70005A01FB69134403F5A0631B689B0C03F004
:104E800003037B61BB695A01FB69134403F5A0630B
:104E90001B68DB0F03F001033B617B689B6803F039
:104EA0002003202B04D13B69002B01D10023C8E053
:104EB0007B69002B02D07B69022B63D1BB695A014D
:104EC000FB69134403F5A0631B68BA695101FA69D1
:104ED0000A4402F5A06243F0804313607B689B683C
:104EE00003F02003002B40F0AB807B68DB6A03F407
:104EF0007F03002B33D1BB695A01FB69134403F5CF
:104F0000A0631B68BA695101FA690A4402F5A062FC
:104F100023F000431360BB695A01FB69134403F596
:104F2000A0631B68BA695101FA690A4402F5A062DC
:104F300043F000431360FB680133FB60FB68B3F58B
:104F40007A7F1DD8BB695A01FB69134403F5A0633E
:104F50001B6803F00043B3F1004FECD070E0BB6975
:104F60005A01FB69134403F5A0631B68BA69510138
:104F7000FA690A4402F5A06243F0004313605FE05F
:104F800000BF5DE0BB695A01FB69134403F5A063F0
:104F90001B68BA695101FA690A4402F5A06243F03C
:104FA00080431360FB6903F580631B6903F47F038F
:104FB000002B33D1BB695A01FB69134403F5A0638D
:104FC0001B68BA695101FA690A4402F5A06223F02C
:104FD00000431360BB695A01FB69134403F5A063E6
:104FE0001B68BA695101FA690A4402F5A06243F0EC
:104FF00000431360FB680133FB60FB68B3F57A7F05
:105000001DD8BB695A01FB69134403F5A0631B68F3
:1050100003F00043B3F1004FECD011E0BB695A013B
:10502000FB69134403F5A0631B68BA695101FA696F
:105030000A4402F5A06243F00043136000E000BFA1
:10504000002318462437BD465DF8047B70470000F6
:1050500080B487B000AF78600B46FB707B687B61E3
:10506000FB783B610123FB60FB68DA04154B1340BE
:105070003A6951017A690A4402F5A06243F000439B
:1050800013613B695A017B69134403F5A0631B68F4
:10509000BB60BB6823F08043BB60BB6843F0004348
:1050A000BB603B695A017B69134403F5A0631A4650
:1050B000BB681360002318461C37BD465DF8047BAF
:1050C000704700BF0000F81F80B588B000AF78605F
:1050D0000023FB777B687B610023FB607868FFF728
:1050E00011F910217868FFF76BF90346002B01D006
:1050F0000123FB777868FFF797F90346002B01D06F
:105100000123FB770023BB611FE0BB695A017B6968
:10511000134403F5A0631B683B613B6943F0804384
:105120003B613B6923F000433B613B6923F400434F
:105130003B61BB695A017B69134403F5A0631A46BE
:105140003B691360BB690133BB61BB690F2BDCD9C1
:105150000023BB6134E0BB695A017B69134403F54A
:10516000A0631B683B613B6943F080433B613B6943
:1051700043F000433B613B6923F400433B61BB695F
:105180005A017B69134403F5A0631A463B69136017
:10519000FB680133FB60FB68B3F57A7F0CD8BB6911
:1051A0005A017B69134403F5A0631B6803F00043B5
:1051B000B3F1004FECD000E000BFBB690133BB612D
:1051C000BB690F2BC7D97B6903F580631A464FF083
:1051D000FF3353617B684FF0FF325A617868FFF705
:1051E00080F8FB7F18462037BD4680BD80B500AFF4
:1051F0000449054807F04CFD03461A46034B1A7054
:1052000000BF80BDF0310020C8DF0008EC31002075
:1052100080B400AF00231846BD465DF8047B70479C
:1052200080B483B000AF0346FB71002318460C37EF
:10523000BD465DF8047B704780B584B000AF03467F
:10524000FB710123FB73FB791946084800F032FE1D
:105250000346002B02D00023FB7301E00123FB7304
:10526000FB7B18461037BD4680BD00BF8836002046
:1052700080B594B002AFB9607A603B600346FB73BF
:10528000012387F84730F97B3B680093BB687A6855
:10529000134800F059FE0346002B03D1002387F882
:1052A000473017E007F11002FB7B19460C4800F06D
:1052B00027FE7B7F3A2B05D03A2B07DC042B01D04D
:1052C000282B03D1032387F8473003E0012387F815
:1052D000473000BF97F8473018464837BD4680BD75
:1052E0008836002080B594B002AFB9607A603B6028
:1052F0000346FB73012387F84730F97B3B68009333
:10530000BB687A68174800F088FE0346002B03D17B
:10531000002387F847301FE007F11002FB7B194696
:10532000104800F0EDFD7B7F3A2B0DD03A2B0FDCBF
:10533000282B09D0282B0BDC042B05D0272B07D1D9
:10534000022387F8473007E0032387F8473003E05C
:10535000012387F8473000BF97F847301846483791
:10536000BD4680BD8836002080B590B000AF0346B2
:105370003A60FB710B46BB71012387F83F30BB7964
:10538000032B52D801A252F823F000BF9D5300080E
:10539000A5530008CF530008FB530008002387F8EB
:1053A0003F3045E007F10802FB791946234800F039
:1053B000A7FD0346002B06D1FA683B681A6000235C
:1053C00087F83F3034E0012387F83F3030E007F1C1
:1053D0000802FB791946194800F092FD0346002B9C
:1053E00007D13B8A1A463B681A60002387F83F3092
:1053F0001EE0012387F83F301AE007F10802FB792D
:1054000019460E4800F07CFD0346002B09D13B8A6B
:105410005B0A9BB21A463B681A60002387F83F304C
:1054200006E0012387F83F3002E0042387F83F308D
:1054300097F83F3018464037BD4680BD883600207B
:1054400090B589B004AF78607B68D3F87C33197964
:1054500050230622786801F06BFC0346FB73FB7B4C
:10546000FF2B02D0FB7B012B01D9022306E1FB7B42
:105470001946786801F040FC0346BB73BB7B002BE8
:1054800001D00223FAE07B68D3F87C434FF48070AC
:1054900008F010F80346E3617B68D3F87C33DB69DE
:1054A000BB60BB68002B01D10223E7E04FF48072A0
:1054B0000021B86808F01CF8FB7B7A681A2101FB10
:1054C00003F3134403F24E331B785BB2002B16DA5E
:1054D000FB7B7A681A2101FB03F3134403F24E337A
:1054E0001A78BB68DA71FB7B7A681A2101FB03F337
:1054F000134403F554731A88BB685A8115E0FB7B8B
:105500007A681A2101FB03F3134403F24E331A782D
:10551000BB689A71FB7B7A681A2101FB03F3134481
:1055200003F554731A88BB681A81FB7B7A681A21C9
:1055300001FB03F3134403F256331B785BB2002BD9
:1055400016DAFB7B7A681A2101FB03F3134403F29A
:1055500056331A78BB68DA71FB7B7A681A2101FB33
:1055600003F3134403F556731A88BB685A8115E098
:10557000FB7B7A681A2101FB03F3134403F25633D1
:105580001A78BB689A71FB7B7A681A2101FB03F3D6
:10559000134403F556731A88BB681A81BB6800224E
:1055A0001A73BB6800225A73BB6800229A73BB68E7
:1055B0009B791946786802F0D6FE03461A46BB6806
:1055C0005A71BB68DB791946786802F0CCFE034655
:1055D0001A46BB681A71786800F0C4FDBB689B79F5
:1055E000002B1ED0BB681B89002B1AD0BB685979D1
:1055F000BB6898797B6893F81C437B6893F81D33EC
:10560000BA6812890292022201920093234602464E
:10561000786802F079FE00BFBB68DB79002B2CD0E4
:1056200001E003232AE0BB685B89002B25D0BB681F
:105630001979BB68D8797B6893F81C437B6893F829
:105640001D33BA68528902920222019200932346C6
:105650000246786802F058FE00BFBB681B79002242
:105660001946786807F065FEBB685B790022194629
:10567000786807F05EFE002300E003231846143725
:10568000BD4690BD80B584B000AF78607B68D3F82C
:105690007C33DB69FB60FB685B79002B0ED0FB6819
:1056A0005B791946786802F04EFEFB685B79194613
:1056B000786802F079FEFB6800225A71FB681B795A
:1056C000002B0ED0FB681B791946786802F03BFE70
:1056D000FB681B791946786802F066FEFB680022B9
:1056E0001A717B68D3F87C33DB69002B0BD07B68A5
:1056F000D3F87C33DB69184607F0E4FE7B68D3F807
:105700007C330022DA61002318461037BD4680BD85
:1057100080B584B000AF78607B68D3F87C33DB69F8
:10572000BB600123FB73BB689B7B032B41D0032B26
:105730004BDC002B01D0022B47D1BB68194678689F
:1057400000F0F1FC0346FB73FB7B032B04D1BB6829
:1057500000221A700023FB73FB7B002B37D1BB6840
:105760001B78022B04D8BB681B780133DAB200E047
:105770000222BB681A700023BB7314E0BB7BBA68BB
:10578000342101FB03F31344923302221A70BB7BD2
:10579000BA68342101FB03F31344C13300221A70A9
:1057A000BB7B0133BB73BB681B78BA7B9A42E5D3E2
:1057B0000DE00021786802F088F80346002B08D13C
:1057C000BB68DA7BBB689A7303E000BF02E000BFEE
:1057D00000E000BFFB7B18461037BD4680BD0000CF
:1057E00080B586B000AF78607B68D3F87C33DB6926
:1057F0003B610123FB750123FB730123BB733B69F1
:105800001B7B002B03D0012B00F0718272E23B69FD
:10581000B3F8F8203B691B789BB29A4280F04F8224
:105820003B69B3F8F83019463A69342301FB03F3B6
:105830001344913301221A703B69B3F8F8301946CA
:105840003A69342301FB03F3134490331B78082B8C
:1058500000F2438201A252F823F000BF81580008F1
:10586000DB5C000849590008CD5A0008A758000819
:10587000995B0008DB5C0008DB5C0008AD5C00089D
:105880003B69B3F8F83019463A69342301FB03F356
:105890001344903304221A707B68D3F8C4233B6905
:1058A000C3F8FC2022E23B69B3F8F830D9B23B6977
:1058B000B3F8F8301A46342302FB03F398333A69FD
:1058C000134407331A46786800F06AFF0346FB73F7
:1058D000FB7B002B0BD13B69B3F8F83019463A69D2
:1058E000342301FB03F31344903302221A70FB7B31
:1058F000022B0CD13B69B3F8F83019463A693423CE
:1059000001FB03F31344903305221A70E7E1FB7B9C
:10591000042B40F0E4813B69B3F8F83019463A694A
:10592000342301FB03F31344903301221A703B69C3
:10593000B3F8F83019463A69342301FB03F31344F2
:10594000913302221A70CAE13B69B3F8F830DBB236
:105950001946786800F066FE0346BB73BB7B002BDC
:1059600049D13B69B3F8F83019463A69342301FB51
:1059700003F3134492331B78002B0CD03B69B3F82C
:10598000F83019463A69342301FB03F31344C13359
:1059900001221A700BE03B69B3F8F83019463A69F6
:1059A000342301FB03F31344C13300221A703B6913
:1059B000B3F8F83019463A69342301FB03F3134472
:1059C000903303221A703B69B3F8F83019463A69EC
:1059D000342301FB03F31344913300221A703B6913
:1059E000B3F8F83019463A69342301FB03F3134442
:1059F000923300221A70BB7B022B4AD13B69B3F869
:105A0000F83019463A69342301FB03F31344923307
:105A10001B78022B0CD03B69B3F8F83019463A6971
:105A2000342301FB03F31344C13301221A700BE04A
:105A30003B69B3F8F83019463A69342301FB03F3A4
:105A40001344C13300221A703B69B3F8F830194689
:105A50003A69342301FB03F31344903305221A708F
:105A60003B69B3F8F83019463A69342301FB03F374
:105A70001344913301221A703B69B3F8F830194688
:105A80003A69342301FB03F31344923302221A7060
:105A900027E1BB7B042B40F024813B69B3F8F8304D
:105AA00019463A69342301FB03F31344903301226E
:105AB0001A703B69B3F8F83019463A69342301FB90
:105AC00003F31344913302221A700AE13B69B3F8DD
:105AD000F830D9B23B69B3F8F8301A46342302FBE8
